{
  "_format": "hh-sol-artifact-1",
  "contractName": "GPUBilling",
  "sourceName": "contracts/GPUBilling.sol",
  "abi": [
    {
      "inputs": [],
      "stateMutability": "nonpayable",
      "type": "constructor"
    },
    {
      "anonymous": false,
      "inputs": [
        {
          "indexed": true,
          "internalType": "address",
          "name": "user",
          "type": "address"
        },
        {
          "indexed": false,
          "internalType": "uint256",
          "name": "amount",
          "type": "uint256"
        },
        {
          "indexed": false,
          "internalType": "string",
          "name": "transactionId",
          "type": "string"
        },
        {
          "indexed": false,
          "internalType": "address",
          "name": "token",
          "type": "address"
        }
      ],
      "name": "Deposited",
      "type": "event"
    },
    {
      "anonymous": false,
      "inputs": [
        {
          "indexed": true,
          "internalType": "address",
          "name": "owner",
          "type": "address"
        },
        {
          "indexed": false,
          "internalType": "uint256",
          "name": "amount",
          "type": "uint256"
        }
      ],
      "name": "OwnerWithdrawn",
      "type": "event"
    },
    {
      "anonymous": false,
      "inputs": [
        {
          "indexed": false,
          "internalType": "address",
          "name": "token",
          "type": "address"
        },
        {
          "indexed": false,
          "internalType": "string",
          "name": "name",
          "type": "string"
        },
        {
          "indexed": false,
          "internalType": "string",
          "name": "symbol",
          "type": "string"
        },
        {
          "indexed": false,
          "internalType": "string",
          "name": "imageURL",
          "type": "string"
        }
      ],
      "name": "TokenAdded",
      "type": "event"
    },
    {
      "anonymous": false,
      "inputs": [
        {
          "indexed": false,
          "internalType": "address",
          "name": "token",
          "type": "address"
        }
      ],
      "name": "TokenRemoved",
      "type": "event"
    },
    {
      "anonymous": false,
      "inputs": [
        {
          "indexed": true,
          "internalType": "address",
          "name": "user",
          "type": "address"
        },
        {
          "indexed": false,
          "internalType": "uint256",
          "name": "amount",
          "type": "uint256"
        },
        {
          "indexed": false,
          "internalType": "string",
          "name": "transactionId",
          "type": "string"
        },
        {
          "indexed": false,
          "internalType": "address",
          "name": "token",
          "type": "address"
        }
      ],
      "name": "Withdrawn",
      "type": "event"
    },
    {
      "inputs": [
        {
          "internalType": "address",
          "name": "token",
          "type": "address"
        },
        {
          "internalType": "string",
          "name": "name",
          "type": "string"
        },
        {
          "internalType": "string",
          "name": "symbol",
          "type": "string"
        },
        {
          "internalType": "string",
          "name": "imageURL",
          "type": "string"
        }
      ],
      "name": "addAllowedToken",
      "outputs": [],
      "stateMutability": "nonpayable",
      "type": "function"
    },
    {
      "inputs": [
        {
          "internalType": "address",
          "name": "",
          "type": "address"
        }
      ],
      "name": "allowedTokens",
      "outputs": [
        {
          "internalType": "bool",
          "name": "allowed",
          "type": "bool"
        },
        {
          "internalType": "string",
          "name": "name",
          "type": "string"
        },
        {
          "internalType": "string",
          "name": "symbol",
          "type": "string"
        },
        {
          "internalType": "string",
          "name": "imageURL",
          "type": "string"
        }
      ],
      "stateMutability": "view",
      "type": "function"
    },
    {
      "inputs": [
        {
          "internalType": "address",
          "name": "",
          "type": "address"
        },
        {
          "internalType": "address",
          "name": "",
          "type": "address"
        }
      ],
      "name": "balances",
      "outputs": [
        {
          "internalType": "uint256",
          "name": "",
          "type": "uint256"
        }
      ],
      "stateMutability": "view",
      "type": "function"
    },
    {
      "inputs": [
        {
          "internalType": "address",
          "name": "token",
          "type": "address"
        },
        {
          "internalType": "uint256",
          "name": "amount",
          "type": "uint256"
        }
      ],
      "name": "deposit",
      "outputs": [],
      "stateMutability": "nonpayable",
      "type": "function"
    },
    {
      "inputs": [
        {
          "internalType": "address",
          "name": "user",
          "type": "address"
        }
      ],
      "name": "getTransactions",
      "outputs": [
        {
          "components": [
            {
              "internalType": "string",
              "name": "id",
              "type": "string"
            },
            {
              "internalType": "uint256",
              "name": "amount",
              "type": "uint256"
            },
            {
              "internalType": "uint256",
              "name": "timestamp",
              "type": "uint256"
            },
            {
              "internalType": "enum GPUBilling.TransactionType",
              "name": "transactionType",
              "type": "uint8"
            },
            {
              "internalType": "address",
              "name": "token",
              "type": "address"
            }
          ],
          "internalType": "struct GPUBilling.Transaction[]",
          "name": "",
          "type": "tuple[]"
        }
      ],
      "stateMutability": "view",
      "type": "function"
    },
    {
      "inputs": [],
      "name": "owner",
      "outputs": [
        {
          "internalType": "address",
          "name": "",
          "type": "address"
        }
      ],
      "stateMutability": "view",
      "type": "function"
    },
    {
      "inputs": [
        {
          "internalType": "address",
          "name": "token",
          "type": "address"
        },
        {
          "internalType": "uint256",
          "name": "amount",
          "type": "uint256"
        }
      ],
      "name": "ownerWithdraw",
      "outputs": [],
      "stateMutability": "nonpayable",
      "type": "function"
    },
    {
      "inputs": [
        {
          "internalType": "address",
          "name": "token",
          "type": "address"
        }
      ],
      "name": "removeAllowedToken",
      "outputs": [],
      "stateMutability": "nonpayable",
      "type": "function"
    },
    {
      "inputs": [
        {
          "internalType": "address",
          "name": "token",
          "type": "address"
        },
        {
          "internalType": "uint256",
          "name": "amount",
          "type": "uint256"
        }
      ],
      "name": "withdraw",
      "outputs": [],
      "stateMutability": "nonpayable",
      "type": "function"
    }
  ],
  "bytecode": "0x608060405234801561001057600080fd5b50336000806101000a81548173ffffffffffffffffffffffffffffffffffffffff021916908373ffffffffffffffffffffffffffffffffffffffff16021790555060018081905550612799806100676000396000f3fe608060405234801561001057600080fd5b50600436106100935760003560e01c806394f68d891161006657806394f68d891461011e578063c23f001f1461013a578063d9c88e141461016a578063e744092e14610186578063f3fef3a3146101b957610093565b80630f8cda201461009857806347e7ef24146100c85780638da5cb5b146100e457806390469a9d14610102575b600080fd5b6100b260048036038101906100ad9190611799565b6101d5565b6040516100bf9190611a2d565b60405180910390f35b6100e260048036038101906100dd9190611a7b565b6103aa565b005b6100ec61074e565b6040516100f99190611aca565b60405180910390f35b61011c60048036038101906101179190611799565b610772565b005b61013860048036038101906101339190611c1a565b6108c0565b005b610154600480360381019061014f9190611cd5565b610a59565b6040516101619190611d24565b60405180910390f35b610184600480360381019061017f9190611a7b565b610a7e565b005b6101a0600480360381019061019b9190611799565b610d76565b6040516101b09493929190611da4565b60405180910390f35b6101d360048036038101906101ce9190611a7b565b610f4b565b005b6060600460008373ffffffffffffffffffffffffffffffffffffffff1673ffffffffffffffffffffffffffffffffffffffff168152602001908152602001600020805480602002602001604051908101604052809291908181526020016000905b8282101561039f57838290600052602060002090600402016040518060a001604052908160008201805461026990611e2d565b80601f016020809104026020016040519081016040528092919081815260200182805461029590611e2d565b80156102e25780601f106102b7576101008083540402835291602001916102e2565b820191906000526020600020905b8154815290600101906020018083116102c557829003601f168201915b5050505050815260200160018201548152602001600282015481526020016003820160009054906101000a900460ff1660038111156103245761032361189b565b5b60038111156103365761033561189b565b5b81526020016003820160019054906101000a900473ffffffffffffffffffffffffffffffffffffffff1673ffffffffffffffffffffffffffffffffffffffff1673ffffffffffffffffffffffffffffffffffffffff168152505081526020019060010190610236565b505050509050919050565b600260008373ffffffffffffffffffffffffffffffffffffffff1673ffffffffffffffffffffffffffffffffffffffff16815260200190815260200160002060000160009054906101000a900460ff16610439576040517f08c379a000000000000000000000000000000000000000000000000000000000815260040161043090611eaa565b60405180910390fd5b6000811161047c576040517f08c379a000000000000000000000000000000000000000000000000000000000815260040161047390611f3c565b60405180910390fd5b8173ffffffffffffffffffffffffffffffffffffffff166323b872dd3330846040518463ffffffff1660e01b81526004016104b993929190611f5c565b6020604051808303816000875af11580156104d8573d6000803e3d6000fd5b505050506040513d601f19601f820116820180604052508101906104fc9190611fbf565b506000610507611515565b9050600460003373ffffffffffffffffffffffffffffffffffffffff1673ffffffffffffffffffffffffffffffffffffffff1681526020019081526020016000206040518060a00160405280838152602001848152602001428152602001600060038111156105795761057861189b565b5b81526020018573ffffffffffffffffffffffffffffffffffffffff16815250908060018154018082558091505060019003906000526020600020906004020160009091909190915060008201518160000190816105d69190612198565b50602082015181600101556040820151816002015560608201518160030160006101000a81548160ff021916908360038111156106165761061561189b565b5b021790555060808201518160030160016101000a81548173ffffffffffffffffffffffffffffffffffffffff021916908373ffffffffffffffffffffffffffffffffffffffff160217905550505081600360003373ffffffffffffffffffffffffffffffffffffffff1673ffffffffffffffffffffffffffffffffffffffff16815260200190815260200160002060008573ffffffffffffffffffffffffffffffffffffffff1673ffffffffffffffffffffffffffffffffffffffff16815260200190815260200160002060008282546106f09190612299565b925050819055503373ffffffffffffffffffffffffffffffffffffffff167f89b0164aff61c96ac7a29af7c52b535aa2634a55f68dc9ff6020bed1d6e24e79838386604051610741939291906122cd565b60405180910390a2505050565b60008054906101000a900473ffffffffffffffffffffffffffffffffffffffff1681565b60008054906101000a900473ffffffffffffffffffffffffffffffffffffffff1673ffffffffffffffffffffffffffffffffffffffff163373ffffffffffffffffffffffffffffffffffffffff1614610800576040517f08c379a00000000000000000000000000000000000000000000000000000000081526004016107f790612357565b60405180910390fd5b600260008273ffffffffffffffffffffffffffffffffffffffff1673ffffffffffffffffffffffffffffffffffffffff168152602001908152602001600020600080820160006101000a81549060ff021916905560018201600061086491906116ca565b60028201600061087491906116ca565b60038201600061088491906116ca565b50507f4c910b69fe65a61f7531b9c5042b2329ca7179c77290aa7e2eb3afa3c8511fd3816040516108b59190611aca565b60405180910390a150565b60008054906101000a900473ffffffffffffffffffffffffffffffffffffffff1673ffffffffffffffffffffffffffffffffffffffff163373ffffffffffffffffffffffffffffffffffffffff161461094e576040517f08c379a000000000000000000000000000000000000000000000000000000000815260040161094590612357565b60405180910390fd5b604051806080016040528060011515815260200184815260200183815260200182815250600260008673ffffffffffffffffffffffffffffffffffffffff1673ffffffffffffffffffffffffffffffffffffffff16815260200190815260200160002060008201518160000160006101000a81548160ff02191690831515021790555060208201518160010190816109e69190612198565b5060408201518160020190816109fc9190612198565b506060820151816003019081610a129190612198565b509050507f9f1bd135e9888d8433496191d7659eb65a2a6cdc7a44122bf4515b8de6683f2d84848484604051610a4b9493929190612377565b60405180910390a150505050565b6003602052816000526040600020602052806000526040600020600091509150505481565b60008054906101000a900473ffffffffffffffffffffffffffffffffffffffff1673ffffffffffffffffffffffffffffffffffffffff163373ffffffffffffffffffffffffffffffffffffffff1614610b0c576040517f08c379a0000000000000000000000000000000000000000000000000000000008152600401610b0390612357565b60405180910390fd5b600260008373ffffffffffffffffffffffffffffffffffffffff1673ffffffffffffffffffffffffffffffffffffffff16815260200190815260200160002060000160009054906101000a900460ff16610b9b576040517f08c379a0000000000000000000000000000000000000000000000000000000008152600401610b9290611eaa565b60405180910390fd5b600081118015610c245750808273ffffffffffffffffffffffffffffffffffffffff166370a08231306040518263ffffffff1660e01b8152600401610be09190611aca565b602060405180830381865afa158015610bfd573d6000803e3d6000fd5b505050506040513d601f19601f82011682018060405250810190610c2191906123e6565b10155b610c63576040517f08c379a0000000000000000000000000000000000000000000000000000000008152600401610c5a9061245f565b60405180910390fd5b8173ffffffffffffffffffffffffffffffffffffffff166323b872dd3060008054906101000a900473ffffffffffffffffffffffffffffffffffffffff16846040518463ffffffff1660e01b8152600401610cc093929190611f5c565b6020604051808303816000875af1158015610cdf573d6000803e3d6000fd5b505050506040513d601f19601f82011682018060405250810190610d039190611fbf565b5060008054906101000a900473ffffffffffffffffffffffffffffffffffffffff1673ffffffffffffffffffffffffffffffffffffffff167f7f36cb738e7e0427042dc19669b1186fd858a03b8e699e089a4306ab78a160cb82604051610d6a9190611d24565b60405180910390a25050565b60026020528060005260406000206000915090508060000160009054906101000a900460ff1690806001018054610dac90611e2d565b80601f0160208091040260200160405190810160405280929190818152602001828054610dd890611e2d565b8015610e255780601f10610dfa57610100808354040283529160200191610e25565b820191906000526020600020905b815481529060010190602001808311610e0857829003601f168201915b505050505090806002018054610e3a90611e2d565b80601f0160208091040260200160405190810160405280929190818152602001828054610e6690611e2d565b8015610eb35780601f10610e8857610100808354040283529160200191610eb3565b820191906000526020600020905b815481529060010190602001808311610e9657829003601f168201915b505050505090806003018054610ec890611e2d565b80601f0160208091040260200160405190810160405280929190818152602001828054610ef490611e2d565b8015610f415780601f10610f1657610100808354040283529160200191610f41565b820191906000526020600020905b815481529060010190602001808311610f2457829003601f168201915b5050505050905084565b600260008373ffffffffffffffffffffffffffffffffffffffff1673ffffffffffffffffffffffffffffffffffffffff16815260200190815260200160002060000160009054906101000a900460ff16610fda576040517f08c379a0000000000000000000000000000000000000000000000000000000008152600401610fd190611eaa565b60405180910390fd5b6000811161101d576040517f08c379a0000000000000000000000000000000000000000000000000000000008152600401611014906124f1565b60405180910390fd5b80600360003373ffffffffffffffffffffffffffffffffffffffff1673ffffffffffffffffffffffffffffffffffffffff16815260200190815260200160002060008473ffffffffffffffffffffffffffffffffffffffff1673ffffffffffffffffffffffffffffffffffffffff1681526020019081526020016000205410156110dc576040517f08c379a00000000000000000000000000000000000000000000000000000000081526004016110d39061255d565b60405180910390fd5b60006110e6611515565b905081600360003373ffffffffffffffffffffffffffffffffffffffff1673ffffffffffffffffffffffffffffffffffffffff16815260200190815260200160002060008573ffffffffffffffffffffffffffffffffffffffff1673ffffffffffffffffffffffffffffffffffffffff1681526020019081526020016000206000828254611174919061257d565b925050819055508273ffffffffffffffffffffffffffffffffffffffff166323b872dd3033856040518463ffffffff1660e01b81526004016111b893929190611f5c565b6020604051808303816000875af11580156111d7573d6000803e3d6000fd5b505050506040513d601f19601f820116820180604052508101906111fb9190611fbf565b50600460003373ffffffffffffffffffffffffffffffffffffffff1673ffffffffffffffffffffffffffffffffffffffff1681526020019081526020016000206040518060a001604052808381526020018481526020014281526020016001600381111561126c5761126b61189b565b5b81526020018573ffffffffffffffffffffffffffffffffffffffff16815250908060018154018082558091505060019003906000526020600020906004020160009091909190915060008201518160000190816112c99190612198565b50602082015181600101556040820151816002015560608201518160030160006101000a81548160ff021916908360038111156113095761130861189b565b5b021790555060808201518160030160016101000a81548173ffffffffffffffffffffffffffffffffffffffff021916908373ffffffffffffffffffffffffffffffffffffffff16021790555050503373ffffffffffffffffffffffffffffffffffffffff167f971bd5a101131c5173b46091c05a7ba1680351a2d3ad3bbe79535718029bafd58383866040516113a1939291906122cd565b60405180910390a260006113b3611515565b9050600460003373ffffffffffffffffffffffffffffffffffffffff1673ffffffffffffffffffffffffffffffffffffffff1681526020019081526020016000206040518060a001604052808381526020018581526020014281526020016003808111156114245761142361189b565b5b81526020018673ffffffffffffffffffffffffffffffffffffffff16815250908060018154018082558091505060019003906000526020600020906004020160009091909190915060008201518160000190816114819190612198565b50602082015181600101556040820151816002015560608201518160030160006101000a81548160ff021916908360038111156114c1576114c061189b565b5b021790555060808201518160030160016101000a81548173ffffffffffffffffffffffffffffffffffffffff021916908373ffffffffffffffffffffffffffffffffffffffff160217905550505050505050565b60606000611524600154611564565b6040516020016115349190612639565b6040516020818303038152906040529050600160008154809291906115589061265b565b91905055508091505090565b6060600082036115ab576040518060400160405280600181526020017f300000000000000000000000000000000000000000000000000000000000000081525090506116c5565b600082905060005b600082146115dd5780806115c69061265b565b915050600a826115d691906126d2565b91506115b3565b60008167ffffffffffffffff8111156115f9576115f8611aef565b5b6040519080825280601f01601f19166020018201604052801561162b5781602001600182028036833780820191505090505b50905060008290505b600086146116bd57600181611649919061257d565b9050600a866116589190612703565b60306116649190612299565b60f81b82828151811061167a57611679612734565b5b60200101907effffffffffffffffffffffffffffffffffffffffffffffffffffffffffffff1916908160001a905350600a866116b691906126d2565b9550611634565b819450505050505b919050565b5080546116d690611e2d565b6000825580601f106116e85750611707565b601f016020900490600052602060002090810190611706919061170a565b5b50565b5b8082111561172357600081600090555060010161170b565b5090565b6000604051905090565b600080fd5b600080fd5b600073ffffffffffffffffffffffffffffffffffffffff82169050919050565b60006117668261173b565b9050919050565b6117768161175b565b811461178157600080fd5b50565b6000813590506117938161176d565b92915050565b6000602082840312156117af576117ae611731565b5b60006117bd84828501611784565b91505092915050565b600081519050919050565b600082825260208201905092915050565b6000819050602082019050919050565b600081519050919050565b600082825260208201905092915050565b60005b8381101561182c578082015181840152602081019050611811565b60008484015250505050565b6000601f19601f8301169050919050565b6000611854826117f2565b61185e81856117fd565b935061186e81856020860161180e565b61187781611838565b840191505092915050565b6000819050919050565b61189581611882565b82525050565b7f4e487b7100000000000000000000000000000000000000000000000000000000600052602160045260246000fd5b600481106118db576118da61189b565b5b50565b60008190506118ec826118ca565b919050565b60006118fc826118de565b9050919050565b61190c816118f1565b82525050565b61191b8161175b565b82525050565b600060a083016000830151848203600086015261193e8282611849565b9150506020830151611953602086018261188c565b506040830151611966604086018261188c565b5060608301516119796060860182611903565b50608083015161198c6080860182611912565b508091505092915050565b60006119a38383611921565b905092915050565b6000602082019050919050565b60006119c3826117c6565b6119cd81856117d1565b9350836020820285016119df856117e2565b8060005b85811015611a1b57848403895281516119fc8582611997565b9450611a07836119ab565b925060208a019950506001810190506119e3565b50829750879550505050505092915050565b60006020820190508181036000830152611a4781846119b8565b905092915050565b611a5881611882565b8114611a6357600080fd5b50565b600081359050611a7581611a4f565b92915050565b60008060408385031215611a9257611a91611731565b5b6000611aa085828601611784565b9250506020611ab185828601611a66565b9150509250929050565b611ac48161175b565b82525050565b6000602082019050611adf6000830184611abb565b92915050565b600080fd5b600080fd5b7f4e487b7100000000000000000000000000000000000000000000000000000000600052604160045260246000fd5b611b2782611838565b810181811067ffffffffffffffff82111715611b4657611b45611aef565b5b80604052505050565b6000611b59611727565b9050611b658282611b1e565b919050565b600067ffffffffffffffff821115611b8557611b84611aef565b5b611b8e82611838565b9050602081019050919050565b82818337600083830152505050565b6000611bbd611bb884611b6a565b611b4f565b905082815260208101848484011115611bd957611bd8611aea565b5b611be4848285611b9b565b509392505050565b600082601f830112611c0157611c00611ae5565b5b8135611c11848260208601611baa565b91505092915050565b60008060008060808587031215611c3457611c33611731565b5b6000611c4287828801611784565b945050602085013567ffffffffffffffff811115611c6357611c62611736565b5b611c6f87828801611bec565b935050604085013567ffffffffffffffff811115611c9057611c8f611736565b5b611c9c87828801611bec565b925050606085013567ffffffffffffffff811115611cbd57611cbc611736565b5b611cc987828801611bec565b91505092959194509250565b60008060408385031215611cec57611ceb611731565b5b6000611cfa85828601611784565b9250506020611d0b85828601611784565b9150509250929050565b611d1e81611882565b82525050565b6000602082019050611d396000830184611d15565b92915050565b60008115159050919050565b611d5481611d3f565b82525050565b600082825260208201905092915050565b6000611d76826117f2565b611d808185611d5a565b9350611d9081856020860161180e565b611d9981611838565b840191505092915050565b6000608082019050611db96000830187611d4b565b8181036020830152611dcb8186611d6b565b90508181036040830152611ddf8185611d6b565b90508181036060830152611df38184611d6b565b905095945050505050565b7f4e487b7100000000000000000000000000000000000000000000000000000000600052602260045260246000fd5b60006002820490506001821680611e4557607f821691505b602082108103611e5857611e57611dfe565b5b50919050565b7f546f6b656e206e6f7420616c6c6f776564000000000000000000000000000000600082015250565b6000611e94601183611d5a565b9150611e9f82611e5e565b602082019050919050565b60006020820190508181036000830152611ec381611e87565b9050919050565b7f4465706f73697420616d6f756e74206d7573742062652067726561746572207460008201527f68616e207a65726f000000000000000000000000000000000000000000000000602082015250565b6000611f26602883611d5a565b9150611f3182611eca565b604082019050919050565b60006020820190508181036000830152611f5581611f19565b9050919050565b6000606082019050611f716000830186611abb565b611f7e6020830185611abb565b611f8b6040830184611d15565b949350505050565b611f9c81611d3f565b8114611fa757600080fd5b50565b600081519050611fb981611f93565b92915050565b600060208284031215611fd557611fd4611731565b5b6000611fe384828501611faa565b91505092915050565b60008190508160005260206000209050919050565b60006020601f8301049050919050565b600082821b905092915050565b60006008830261204e7fffffffffffffffffffffffffffffffffffffffffffffffffffffffffffffffff82612011565b6120588683612011565b95508019841693508086168417925050509392505050565b6000819050919050565b600061209561209061208b84611882565b612070565b611882565b9050919050565b6000819050919050565b6120af8361207a565b6120c36120bb8261209c565b84845461201e565b825550505050565b600090565b6120d86120cb565b6120e38184846120a6565b505050565b5b81811015612107576120fc6000826120d0565b6001810190506120e9565b5050565b601f82111561214c5761211d81611fec565b61212684612001565b81016020851015612135578190505b61214961214185612001565b8301826120e8565b50505b505050565b600082821c905092915050565b600061216f60001984600802612151565b1980831691505092915050565b6000612188838361215e565b9150826002028217905092915050565b6121a1826117f2565b67ffffffffffffffff8111156121ba576121b9611aef565b5b6121c48254611e2d565b6121cf82828561210b565b600060209050601f83116001811461220257600084156121f0578287015190505b6121fa858261217c565b865550612262565b601f19841661221086611fec565b60005b8281101561223857848901518255600182019150602085019450602081019050612213565b868310156122555784890151612251601f89168261215e565b8355505b6001600288020188555050505b505050505050565b7f4e487b7100000000000000000000000000000000000000000000000000000000600052601160045260246000fd5b60006122a482611882565b91506122af83611882565b92508282019050808211156122c7576122c661226a565b5b92915050565b60006060820190506122e26000830186611d15565b81810360208301526122f48185611d6b565b90506123036040830184611abb565b949350505050565b7f4e6f7420746865206f776e657200000000000000000000000000000000000000600082015250565b6000612341600d83611d5a565b915061234c8261230b565b602082019050919050565b6000602082019050818103600083015261237081612334565b9050919050565b600060808201905061238c6000830187611abb565b818103602083015261239e8186611d6b565b905081810360408301526123b28185611d6b565b905081810360608301526123c68184611d6b565b905095945050505050565b6000815190506123e081611a4f565b92915050565b6000602082840312156123fc576123fb611731565b5b600061240a848285016123d1565b91505092915050565b7f496e76616c696420616d6f756e74000000000000000000000000000000000000600082015250565b6000612449600e83611d5a565b915061245482612413565b602082019050919050565b600060208201905081810360008301526124788161243c565b9050919050565b7f576974686472617720616d6f756e74206d75737420626520677265617465722060008201527f7468616e207a65726f0000000000000000000000000000000000000000000000602082015250565b60006124db602983611d5a565b91506124e68261247f565b604082019050919050565b6000602082019050818103600083015261250a816124ce565b9050919050565b7f496e73756666696369656e742062616c616e6365000000000000000000000000600082015250565b6000612547601483611d5a565b915061255282612511565b602082019050919050565b600060208201905081810360008301526125768161253a565b9050919050565b600061258882611882565b915061259383611882565b92508282039050818111156125ab576125aa61226a565b5b92915050565b600081905092915050565b7f436c75737465722d4750552d0000000000000000000000000000000000000000600082015250565b60006125f2600c836125b1565b91506125fd826125bc565b600c82019050919050565b6000612613826117f2565b61261d81856125b1565b935061262d81856020860161180e565b80840191505092915050565b6000612644826125e5565b91506126508284612608565b915081905092915050565b600061266682611882565b91507fffffffffffffffffffffffffffffffffffffffffffffffffffffffffffffffff82036126985761269761226a565b5b600182019050919050565b7f4e487b7100000000000000000000000000000000000000000000000000000000600052601260045260246000fd5b60006126dd82611882565b91506126e883611882565b9250826126f8576126f76126a3565b5b828204905092915050565b600061270e82611882565b915061271983611882565b925082612729576127286126a3565b5b828206905092915050565b7f4e487b7100000000000000000000000000000000000000000000000000000000600052603260045260246000fdfea2646970667358221220b85baff4db7a80d4d3b6ff1600b13dbebcb2660ea9db3aa19706110fdea1d5ff64736f6c63430008140033",
  "linkReferences": {},
  "deployedLinkReferences": {}
}