{
  "_format": "hh-sol-artifact-1",
  "contractName": "GPUBilling",
  "sourceName": "contracts/GPUBilling.sol",
  "abi": [
    {
      "inputs": [],
      "stateMutability": "nonpayable",
      "type": "constructor"
    },
    {
      "anonymous": false,
      "inputs": [
        {
          "indexed": true,
          "internalType": "address",
          "name": "user",
          "type": "address"
        },
        {
          "indexed": false,
          "internalType": "uint256",
          "name": "amount",
          "type": "uint256"
        },
        {
          "indexed": false,
          "internalType": "string",
          "name": "transactionId",
          "type": "string"
        },
        {
          "indexed": false,
          "internalType": "address",
          "name": "token",
          "type": "address"
        }
      ],
      "name": "BalanceAdded",
      "type": "event"
    },
    {
      "anonymous": false,
      "inputs": [
        {
          "indexed": true,
          "internalType": "address",
          "name": "user",
          "type": "address"
        },
        {
          "indexed": false,
          "internalType": "uint256",
          "name": "amount",
          "type": "uint256"
        },
        {
          "indexed": false,
          "internalType": "string",
          "name": "transactionId",
          "type": "string"
        },
        {
          "indexed": false,
          "internalType": "address",
          "name": "token",
          "type": "address"
        }
      ],
      "name": "BalanceSubtracted",
      "type": "event"
    },
    {
      "anonymous": false,
      "inputs": [
        {
          "indexed": true,
          "internalType": "address",
          "name": "user",
          "type": "address"
        },
        {
          "indexed": false,
          "internalType": "uint256",
          "name": "amount",
          "type": "uint256"
        },
        {
          "indexed": false,
          "internalType": "string",
          "name": "transactionId",
          "type": "string"
        },
        {
          "indexed": false,
          "internalType": "address",
          "name": "token",
          "type": "address"
        }
      ],
      "name": "Deposited",
      "type": "event"
    },
    {
      "anonymous": false,
      "inputs": [
        {
          "indexed": true,
          "internalType": "address",
          "name": "owner",
          "type": "address"
        },
        {
          "indexed": false,
          "internalType": "uint256",
          "name": "amount",
          "type": "uint256"
        }
      ],
      "name": "OwnerWithdrawn",
      "type": "event"
    },
    {
      "anonymous": false,
      "inputs": [
        {
          "indexed": false,
          "internalType": "address",
          "name": "token",
          "type": "address"
        },
        {
          "indexed": false,
          "internalType": "string",
          "name": "name",
          "type": "string"
        },
        {
          "indexed": false,
          "internalType": "string",
          "name": "symbol",
          "type": "string"
        },
        {
          "indexed": false,
          "internalType": "string",
          "name": "imageURL",
          "type": "string"
        }
      ],
      "name": "TokenAdded",
      "type": "event"
    },
    {
      "anonymous": false,
      "inputs": [
        {
          "indexed": false,
          "internalType": "address",
          "name": "token",
          "type": "address"
        }
      ],
      "name": "TokenRemoved",
      "type": "event"
    },
    {
      "anonymous": false,
      "inputs": [
        {
          "indexed": true,
          "internalType": "address",
          "name": "user",
          "type": "address"
        },
        {
          "indexed": false,
          "internalType": "uint256",
          "name": "amount",
          "type": "uint256"
        },
        {
          "indexed": false,
          "internalType": "string",
          "name": "transactionId",
          "type": "string"
        },
        {
          "indexed": false,
          "internalType": "address",
          "name": "token",
          "type": "address"
        }
      ],
      "name": "Withdrawn",
      "type": "event"
    },
    {
      "inputs": [
        {
          "internalType": "address",
          "name": "token",
          "type": "address"
        },
        {
          "internalType": "string",
          "name": "name",
          "type": "string"
        },
        {
          "internalType": "string",
          "name": "symbol",
          "type": "string"
        },
        {
          "internalType": "string",
          "name": "imageURL",
          "type": "string"
        }
      ],
      "name": "addAllowedToken",
      "outputs": [],
      "stateMutability": "nonpayable",
      "type": "function"
    },
    {
      "inputs": [
        {
          "internalType": "address",
          "name": "user",
          "type": "address"
        },
        {
          "internalType": "address",
          "name": "token",
          "type": "address"
        },
        {
          "internalType": "uint256",
          "name": "amount",
          "type": "uint256"
        }
      ],
      "name": "addUserBalance",
      "outputs": [],
      "stateMutability": "nonpayable",
      "type": "function"
    },
    {
      "inputs": [
        {
          "internalType": "address",
          "name": "",
          "type": "address"
        }
      ],
      "name": "allowedTokens",
      "outputs": [
        {
          "internalType": "bool",
          "name": "allowed",
          "type": "bool"
        },
        {
          "internalType": "string",
          "name": "name",
          "type": "string"
        },
        {
          "internalType": "string",
          "name": "symbol",
          "type": "string"
        },
        {
          "internalType": "string",
          "name": "imageURL",
          "type": "string"
        }
      ],
      "stateMutability": "view",
      "type": "function"
    },
    {
      "inputs": [
        {
          "internalType": "address",
          "name": "",
          "type": "address"
        },
        {
          "internalType": "address",
          "name": "",
          "type": "address"
        }
      ],
      "name": "balances",
      "outputs": [
        {
          "internalType": "uint256",
          "name": "",
          "type": "uint256"
        }
      ],
      "stateMutability": "view",
      "type": "function"
    },
    {
      "inputs": [
        {
          "internalType": "address",
          "name": "token",
          "type": "address"
        },
        {
          "internalType": "uint256",
          "name": "amount",
          "type": "uint256"
        }
      ],
      "name": "deposit",
      "outputs": [],
      "stateMutability": "nonpayable",
      "type": "function"
    },
    {
      "inputs": [],
      "name": "getAllTokens",
      "outputs": [
        {
          "internalType": "address[]",
          "name": "",
          "type": "address[]"
        },
        {
          "components": [
            {
              "internalType": "bool",
              "name": "allowed",
              "type": "bool"
            },
            {
              "internalType": "string",
              "name": "name",
              "type": "string"
            },
            {
              "internalType": "string",
              "name": "symbol",
              "type": "string"
            },
            {
              "internalType": "string",
              "name": "imageURL",
              "type": "string"
            }
          ],
          "internalType": "struct GPUBilling.TokenInfo[]",
          "name": "",
          "type": "tuple[]"
        }
      ],
      "stateMutability": "view",
      "type": "function"
    },
    {
      "inputs": [
        {
          "internalType": "address",
          "name": "token",
          "type": "address"
        }
      ],
      "name": "getOwnerBalance",
      "outputs": [
        {
          "internalType": "uint256",
          "name": "",
          "type": "uint256"
        }
      ],
      "stateMutability": "view",
      "type": "function"
    },
    {
      "inputs": [
        {
          "internalType": "address",
          "name": "user",
          "type": "address"
        }
      ],
      "name": "getTransactions",
      "outputs": [
        {
          "components": [
            {
              "internalType": "string",
              "name": "id",
              "type": "string"
            },
            {
              "internalType": "uint256",
              "name": "amount",
              "type": "uint256"
            },
            {
              "internalType": "uint256",
              "name": "timestamp",
              "type": "uint256"
            },
            {
              "internalType": "enum GPUBilling.TransactionType",
              "name": "transactionType",
              "type": "uint8"
            },
            {
              "internalType": "address",
              "name": "token",
              "type": "address"
            }
          ],
          "internalType": "struct GPUBilling.Transaction[]",
          "name": "",
          "type": "tuple[]"
        }
      ],
      "stateMutability": "view",
      "type": "function"
    },
    {
      "inputs": [
        {
          "internalType": "address",
          "name": "user",
          "type": "address"
        }
      ],
      "name": "getUserBalances",
      "outputs": [
        {
          "internalType": "address[]",
          "name": "",
          "type": "address[]"
        },
        {
          "internalType": "uint256[]",
          "name": "",
          "type": "uint256[]"
        }
      ],
      "stateMutability": "view",
      "type": "function"
    },
    {
      "inputs": [],
      "name": "owner",
      "outputs": [
        {
          "internalType": "address",
          "name": "",
          "type": "address"
        }
      ],
      "stateMutability": "view",
      "type": "function"
    },
    {
      "inputs": [
        {
          "internalType": "address",
          "name": "token",
          "type": "address"
        },
        {
          "internalType": "uint256",
          "name": "amount",
          "type": "uint256"
        }
      ],
      "name": "ownerWithdraw",
      "outputs": [],
      "stateMutability": "nonpayable",
      "type": "function"
    },
    {
      "inputs": [
        {
          "internalType": "address",
          "name": "token",
          "type": "address"
        }
      ],
      "name": "removeAllowedToken",
      "outputs": [],
      "stateMutability": "nonpayable",
      "type": "function"
    },
    {
      "inputs": [
        {
          "internalType": "address",
          "name": "user",
          "type": "address"
        },
        {
          "internalType": "address",
          "name": "token",
          "type": "address"
        },
        {
          "internalType": "uint256",
          "name": "amount",
          "type": "uint256"
        }
      ],
      "name": "subtractUserBalance",
      "outputs": [],
      "stateMutability": "nonpayable",
      "type": "function"
    },
    {
      "inputs": [
        {
          "internalType": "uint256",
          "name": "",
          "type": "uint256"
        }
      ],
      "name": "tokenList",
      "outputs": [
        {
          "internalType": "address",
          "name": "",
          "type": "address"
        }
      ],
      "stateMutability": "view",
      "type": "function"
    },
    {
      "inputs": [
        {
          "internalType": "address",
          "name": "token",
          "type": "address"
        },
        {
          "internalType": "uint256",
          "name": "amount",
          "type": "uint256"
        }
      ],
      "name": "withdraw",
      "outputs": [],
      "stateMutability": "nonpayable",
      "type": "function"
    }
  ],
  "bytecode": "0x608060405234801561001057600080fd5b50336000806101000a81548173ffffffffffffffffffffffffffffffffffffffff021916908373ffffffffffffffffffffffffffffffffffffffff16021790555060018081905550613d83806100676000396000f3fe608060405234801561001057600080fd5b50600436106100f55760003560e01c80639ead722211610097578063d9c88e1411610066578063d9c88e1414610298578063e744092e146102b4578063f3b34f06146102e7578063f3fef3a314610303576100f5565b80639ead7222146101eb578063a465ad5f1461021b578063abd3f61214610237578063c23f001f14610268576100f5565b80637fcf440a116100d35780637fcf440a146101655780638da5cb5b1461019557806390469a9d146101b357806394f68d89146101cf576100f5565b80630f8cda20146100fa5780632a5c792a1461012a57806347e7ef2414610149575b600080fd5b610114600480360381019061010f91906128c5565b61031f565b6040516101219190612b59565b60405180910390f35b6101326104f4565b604051610140929190612d78565b60405180910390f35b610163600480360381019061015e9190612ddb565b610884565b005b61017f600480360381019061017a91906128c5565b610c28565b60405161018c9190612e2a565b60405180910390f35b61019d610d3a565b6040516101aa9190612e54565b60405180910390f35b6101cd60048036038101906101c891906128c5565b610d5e565b005b6101e960048036038101906101e49190612fa4565b611039565b005b6102056004803603810190610200919061305f565b611235565b6040516102129190612e54565b60405180910390f35b6102356004803603810190610230919061308c565b611274565b005b610251600480360381019061024c91906128c5565b611626565b60405161025f92919061318e565b60405180910390f35b610282600480360381019061027d91906131c5565b61180f565b60405161028f9190612e2a565b60405180910390f35b6102b260048036038101906102ad9190612ddb565b611834565b005b6102ce60048036038101906102c991906128c5565b611b6e565b6040516102de949392919061325e565b60405180910390f35b61030160048036038101906102fc919061308c565b611d43565b005b61031d60048036038101906103189190612ddb565b6121b4565b005b6060600560008373ffffffffffffffffffffffffffffffffffffffff1673ffffffffffffffffffffffffffffffffffffffff168152602001908152602001600020805480602002602001604051908101604052809291908181526020016000905b828210156104e957838290600052602060002090600402016040518060a00160405290816000820180546103b3906132e7565b80601f01602080910402602001604051908101604052809291908181526020018280546103df906132e7565b801561042c5780601f106104015761010080835404028352916020019161042c565b820191906000526020600020905b81548152906001019060200180831161040f57829003601f168201915b5050505050815260200160018201548152602001600282015481526020016003820160009054906101000a900460ff16600381111561046e5761046d6129c7565b5b60038111156104805761047f6129c7565b5b81526020016003820160019054906101000a900473ffffffffffffffffffffffffffffffffffffffff1673ffffffffffffffffffffffffffffffffffffffff1673ffffffffffffffffffffffffffffffffffffffff168152505081526020019060010190610380565b505050509050919050565b6060806000600380549050905060008167ffffffffffffffff81111561051d5761051c612e79565b5b60405190808252806020026020018201604052801561055657816020015b6105436127cc565b81526020019060019003908161053b5790505b50905060005b828110156107ee57600260006003838154811061057c5761057b613318565b5b9060005260206000200160009054906101000a900473ffffffffffffffffffffffffffffffffffffffff1673ffffffffffffffffffffffffffffffffffffffff1673ffffffffffffffffffffffffffffffffffffffff1681526020019081526020016000206040518060800160405290816000820160009054906101000a900460ff16151515158152602001600182018054610617906132e7565b80601f0160208091040260200160405190810160405280929190818152602001828054610643906132e7565b80156106905780601f1061066557610100808354040283529160200191610690565b820191906000526020600020905b81548152906001019060200180831161067357829003601f168201915b505050505081526020016002820180546106a9906132e7565b80601f01602080910402602001604051908101604052809291908181526020018280546106d5906132e7565b80156107225780601f106106f757610100808354040283529160200191610722565b820191906000526020600020905b81548152906001019060200180831161070557829003601f168201915b5050505050815260200160038201805461073b906132e7565b80601f0160208091040260200160405190810160405280929190818152602001828054610767906132e7565b80156107b45780601f10610789576101008083540402835291602001916107b4565b820191906000526020600020905b81548152906001019060200180831161079757829003601f168201915b5050505050815250508282815181106107d0576107cf613318565b5b602002602001018190525080806107e690613376565b91505061055c565b506003818180548060200260200160405190810160405280929190818152602001828054801561087357602002820191906000526020600020905b8160009054906101000a900473ffffffffffffffffffffffffffffffffffffffff1673ffffffffffffffffffffffffffffffffffffffff1681526020019060010190808311610829575b505050505091509350935050509091565b600260008373ffffffffffffffffffffffffffffffffffffffff1673ffffffffffffffffffffffffffffffffffffffff16815260200190815260200160002060000160009054906101000a900460ff16610913576040517f08c379a000000000000000000000000000000000000000000000000000000000815260040161090a9061340a565b60405180910390fd5b60008111610956576040517f08c379a000000000000000000000000000000000000000000000000000000000815260040161094d9061349c565b60405180910390fd5b8173ffffffffffffffffffffffffffffffffffffffff166323b872dd3330846040518463ffffffff1660e01b8152600401610993939291906134bc565b6020604051808303816000875af11580156109b2573d6000803e3d6000fd5b505050506040513d601f19601f820116820180604052508101906109d6919061351f565b5080600460003373ffffffffffffffffffffffffffffffffffffffff1673ffffffffffffffffffffffffffffffffffffffff16815260200190815260200160002060008473ffffffffffffffffffffffffffffffffffffffff1673ffffffffffffffffffffffffffffffffffffffff1681526020019081526020016000206000828254610a63919061354c565b925050819055506000610a74612617565b9050600560003373ffffffffffffffffffffffffffffffffffffffff1673ffffffffffffffffffffffffffffffffffffffff1681526020019081526020016000206040518060a0016040528083815260200184815260200142815260200160006003811115610ae657610ae56129c7565b5b81526020018573ffffffffffffffffffffffffffffffffffffffff1681525090806001815401808255809150506001900390600052602060002090600402016000909190919091506000820151816000019081610b43919061372c565b50602082015181600101556040820151816002015560608201518160030160006101000a81548160ff02191690836003811115610b8357610b826129c7565b5b021790555060808201518160030160016101000a81548173ffffffffffffffffffffffffffffffffffffffff021916908373ffffffffffffffffffffffffffffffffffffffff16021790555050503373ffffffffffffffffffffffffffffffffffffffff167f89b0164aff61c96ac7a29af7c52b535aa2634a55f68dc9ff6020bed1d6e24e79838386604051610c1b939291906137fe565b60405180910390a2505050565b60008060009054906101000a900473ffffffffffffffffffffffffffffffffffffffff1673ffffffffffffffffffffffffffffffffffffffff163373ffffffffffffffffffffffffffffffffffffffff1614610cb9576040517f08c379a0000000000000000000000000000000000000000000000000000000008152600401610cb090613888565b60405180910390fd5b8173ffffffffffffffffffffffffffffffffffffffff166370a08231306040518263ffffffff1660e01b8152600401610cf29190612e54565b602060405180830381865afa158015610d0f573d6000803e3d6000fd5b505050506040513d601f19601f82011682018060405250810190610d3391906138bd565b9050919050565b60008054906101000a900473ffffffffffffffffffffffffffffffffffffffff1681565b60008054906101000a900473ffffffffffffffffffffffffffffffffffffffff1673ffffffffffffffffffffffffffffffffffffffff163373ffffffffffffffffffffffffffffffffffffffff1614610dec576040517f08c379a0000000000000000000000000000000000000000000000000000000008152600401610de390613888565b60405180910390fd5b600260008273ffffffffffffffffffffffffffffffffffffffff1673ffffffffffffffffffffffffffffffffffffffff168152602001908152602001600020600080820160006101000a81549060ff0219169055600182016000610e5091906127f6565b600282016000610e6091906127f6565b600382016000610e7091906127f6565b505060005b600380549050811015610ffe578173ffffffffffffffffffffffffffffffffffffffff1660038281548110610ead57610eac613318565b5b9060005260206000200160009054906101000a900473ffffffffffffffffffffffffffffffffffffffff1673ffffffffffffffffffffffffffffffffffffffff1603610feb5760036001600380549050610f0791906138ea565b81548110610f1857610f17613318565b5b9060005260206000200160009054906101000a900473ffffffffffffffffffffffffffffffffffffffff1660038281548110610f5757610f56613318565b5b9060005260206000200160006101000a81548173ffffffffffffffffffffffffffffffffffffffff021916908373ffffffffffffffffffffffffffffffffffffffff1602179055506003805480610fb157610fb061391e565b5b6001900381819060005260206000200160006101000a81549073ffffffffffffffffffffffffffffffffffffffff02191690559055610ffe565b8080610ff690613376565b915050610e75565b507f4c910b69fe65a61f7531b9c5042b2329ca7179c77290aa7e2eb3afa3c8511fd38160405161102e9190612e54565b60405180910390a150565b60008054906101000a900473ffffffffffffffffffffffffffffffffffffffff1673ffffffffffffffffffffffffffffffffffffffff163373ffffffffffffffffffffffffffffffffffffffff16146110c7576040517f08c379a00000000000000000000000000000000000000000000000000000000081526004016110be90613888565b60405180910390fd5b604051806080016040528060011515815260200184815260200183815260200182815250600260008673ffffffffffffffffffffffffffffffffffffffff1673ffffffffffffffffffffffffffffffffffffffff16815260200190815260200160002060008201518160000160006101000a81548160ff021916908315150217905550602082015181600101908161115f919061372c565b506040820151816002019081611175919061372c565b50606082015181600301908161118b919061372c565b509050506003849080600181540180825580915050600190039060005260206000200160009091909190916101000a81548173ffffffffffffffffffffffffffffffffffffffff021916908373ffffffffffffffffffffffffffffffffffffffff1602179055507f9f1bd135e9888d8433496191d7659eb65a2a6cdc7a44122bf4515b8de6683f2d84848484604051611227949392919061394d565b60405180910390a150505050565b6003818154811061124557600080fd5b906000526020600020016000915054906101000a900473ffffffffffffffffffffffffffffffffffffffff1681565b60008054906101000a900473ffffffffffffffffffffffffffffffffffffffff1673ffffffffffffffffffffffffffffffffffffffff163373ffffffffffffffffffffffffffffffffffffffff1614611302576040517f08c379a00000000000000000000000000000000000000000000000000000000081526004016112f990613888565b60405180910390fd5b600260008373ffffffffffffffffffffffffffffffffffffffff1673ffffffffffffffffffffffffffffffffffffffff16815260200190815260200160002060000160009054906101000a900460ff16611391576040517f08c379a00000000000000000000000000000000000000000000000000000000081526004016113889061340a565b60405180910390fd5b600081116113d4576040517f08c379a00000000000000000000000000000000000000000000000000000000081526004016113cb906139f3565b60405180910390fd5b80600460008573ffffffffffffffffffffffffffffffffffffffff1673ffffffffffffffffffffffffffffffffffffffff16815260200190815260200160002060008473ffffffffffffffffffffffffffffffffffffffff1673ffffffffffffffffffffffffffffffffffffffff1681526020019081526020016000206000828254611460919061354c565b925050819055506000611471612617565b9050600560008573ffffffffffffffffffffffffffffffffffffffff1673ffffffffffffffffffffffffffffffffffffffff1681526020019081526020016000206040518060a00160405280838152602001848152602001428152602001600060038111156114e3576114e26129c7565b5b81526020018573ffffffffffffffffffffffffffffffffffffffff1681525090806001815401808255809150506001900390600052602060002090600402016000909190919091506000820151816000019081611540919061372c565b50602082015181600101556040820151816002015560608201518160030160006101000a81548160ff021916908360038111156115805761157f6129c7565b5b021790555060808201518160030160016101000a81548173ffffffffffffffffffffffffffffffffffffffff021916908373ffffffffffffffffffffffffffffffffffffffff16021790555050508373ffffffffffffffffffffffffffffffffffffffff167f113b0631e92d41a59014c117c5e1418a824a42436a2580ed740f82df7772e7db838386604051611618939291906137fe565b60405180910390a250505050565b6060806000600380549050905060008167ffffffffffffffff81111561164f5761164e612e79565b5b60405190808252806020026020018201604052801561167d5781602001602082028036833780820191505090505b50905060005b8281101561177857600460008773ffffffffffffffffffffffffffffffffffffffff1673ffffffffffffffffffffffffffffffffffffffff1681526020019081526020016000206000600383815481106116e0576116df613318565b5b9060005260206000200160009054906101000a900473ffffffffffffffffffffffffffffffffffffffff1673ffffffffffffffffffffffffffffffffffffffff1673ffffffffffffffffffffffffffffffffffffffff1681526020019081526020016000205482828151811061175957611758613318565b5b602002602001018181525050808061177090613376565b915050611683565b50600381818054806020026020016040519081016040528092919081815260200182805480156117fd57602002820191906000526020600020905b8160009054906101000a900473ffffffffffffffffffffffffffffffffffffffff1673ffffffffffffffffffffffffffffffffffffffff16815260200190600101908083116117b3575b50505050509150935093505050915091565b6004602052816000526040600020602052806000526040600020600091509150505481565b60008054906101000a900473ffffffffffffffffffffffffffffffffffffffff1673ffffffffffffffffffffffffffffffffffffffff163373ffffffffffffffffffffffffffffffffffffffff16146118c2576040517f08c379a00000000000000000000000000000000000000000000000000000000081526004016118b990613888565b60405180910390fd5b600260008373ffffffffffffffffffffffffffffffffffffffff1673ffffffffffffffffffffffffffffffffffffffff16815260200190815260200160002060000160009054906101000a900460ff16611951576040517f08c379a00000000000000000000000000000000000000000000000000000000081526004016119489061340a565b60405180910390fd5b6000811180156119da5750808273ffffffffffffffffffffffffffffffffffffffff166370a08231306040518263ffffffff1660e01b81526004016119969190612e54565b602060405180830381865afa1580156119b3573d6000803e3d6000fd5b505050506040513d601f19601f820116820180604052508101906119d791906138bd565b10155b611a19576040517f08c379a0000000000000000000000000000000000000000000000000000000008152600401611a1090613a5f565b60405180910390fd5b60008273ffffffffffffffffffffffffffffffffffffffff1663a9059cbb60008054906101000a900473ffffffffffffffffffffffffffffffffffffffff16846040518363ffffffff1660e01b8152600401611a76929190613a7f565b6020604051808303816000875af1158015611a95573d6000803e3d6000fd5b505050506040513d601f19601f82011682018060405250810190611ab9919061351f565b905080611afb576040517f08c379a0000000000000000000000000000000000000000000000000000000008152600401611af290613af4565b60405180910390fd5b60008054906101000a900473ffffffffffffffffffffffffffffffffffffffff1673ffffffffffffffffffffffffffffffffffffffff167f7f36cb738e7e0427042dc19669b1186fd858a03b8e699e089a4306ab78a160cb83604051611b619190612e2a565b60405180910390a2505050565b60026020528060005260406000206000915090508060000160009054906101000a900460ff1690806001018054611ba4906132e7565b80601f0160208091040260200160405190810160405280929190818152602001828054611bd0906132e7565b8015611c1d5780601f10611bf257610100808354040283529160200191611c1d565b820191906000526020600020905b815481529060010190602001808311611c0057829003601f168201915b505050505090806002018054611c32906132e7565b80601f0160208091040260200160405190810160405280929190818152602001828054611c5e906132e7565b8015611cab5780601f10611c8057610100808354040283529160200191611cab565b820191906000526020600020905b815481529060010190602001808311611c8e57829003601f168201915b505050505090806003018054611cc0906132e7565b80601f0160208091040260200160405190810160405280929190818152602001828054611cec906132e7565b8015611d395780601f10611d0e57610100808354040283529160200191611d39565b820191906000526020600020905b815481529060010190602001808311611d1c57829003601f168201915b5050505050905084565b60008054906101000a900473ffffffffffffffffffffffffffffffffffffffff1673ffffffffffffffffffffffffffffffffffffffff163373ffffffffffffffffffffffffffffffffffffffff1614611dd1576040517f08c379a0000000000000000000000000000000000000000000000000000000008152600401611dc890613888565b60405180910390fd5b600260008373ffffffffffffffffffffffffffffffffffffffff1673ffffffffffffffffffffffffffffffffffffffff16815260200190815260200160002060000160009054906101000a900460ff16611e60576040517f08c379a0000000000000000000000000000000000000000000000000000000008152600401611e579061340a565b60405180910390fd5b60008111611ea3576040517f08c379a0000000000000000000000000000000000000000000000000000000008152600401611e9a906139f3565b60405180910390fd5b80600460008573ffffffffffffffffffffffffffffffffffffffff1673ffffffffffffffffffffffffffffffffffffffff16815260200190815260200160002060008473ffffffffffffffffffffffffffffffffffffffff1673ffffffffffffffffffffffffffffffffffffffff168152602001908152602001600020541015611f62576040517f08c379a0000000000000000000000000000000000000000000000000000000008152600401611f5990613b60565b60405180910390fd5b80600460008573ffffffffffffffffffffffffffffffffffffffff1673ffffffffffffffffffffffffffffffffffffffff16815260200190815260200160002060008473ffffffffffffffffffffffffffffffffffffffff1673ffffffffffffffffffffffffffffffffffffffff1681526020019081526020016000206000828254611fee91906138ea565b925050819055506000611fff612617565b9050600560008573ffffffffffffffffffffffffffffffffffffffff1673ffffffffffffffffffffffffffffffffffffffff1681526020019081526020016000206040518060a0016040528083815260200184815260200142815260200160016003811115612071576120706129c7565b5b81526020018573ffffffffffffffffffffffffffffffffffffffff16815250908060018154018082558091505060019003906000526020600020906004020160009091909190915060008201518160000190816120ce919061372c565b50602082015181600101556040820151816002015560608201518160030160006101000a81548160ff0219169083600381111561210e5761210d6129c7565b5b021790555060808201518160030160016101000a81548173ffffffffffffffffffffffffffffffffffffffff021916908373ffffffffffffffffffffffffffffffffffffffff16021790555050508373ffffffffffffffffffffffffffffffffffffffff167f06adb161bd097d2da8f25f98d009efdf719a3872f8e7087f94edd8d92dd2ba928383866040516121a6939291906137fe565b60405180910390a250505050565b600260008373ffffffffffffffffffffffffffffffffffffffff1673ffffffffffffffffffffffffffffffffffffffff16815260200190815260200160002060000160009054906101000a900460ff16612243576040517f08c379a000000000000000000000000000000000000000000000000000000000815260040161223a9061340a565b60405180910390fd5b60008111612286576040517f08c379a000000000000000000000000000000000000000000000000000000000815260040161227d90613bf2565b60405180910390fd5b80600460003373ffffffffffffffffffffffffffffffffffffffff1673ffffffffffffffffffffffffffffffffffffffff16815260200190815260200160002060008473ffffffffffffffffffffffffffffffffffffffff1673ffffffffffffffffffffffffffffffffffffffff168152602001908152602001600020541015612345576040517f08c379a000000000000000000000000000000000000000000000000000000000815260040161233c90613b60565b60405180910390fd5b600061234f612617565b905081600460003373ffffffffffffffffffffffffffffffffffffffff1673ffffffffffffffffffffffffffffffffffffffff16815260200190815260200160002060008573ffffffffffffffffffffffffffffffffffffffff1673ffffffffffffffffffffffffffffffffffffffff16815260200190815260200160002060008282546123dd91906138ea565b925050819055508273ffffffffffffffffffffffffffffffffffffffff166323b872dd3033856040518463ffffffff1660e01b8152600401612421939291906134bc565b6020604051808303816000875af1158015612440573d6000803e3d6000fd5b505050506040513d601f19601f82011682018060405250810190612464919061351f565b50600560003373ffffffffffffffffffffffffffffffffffffffff1673ffffffffffffffffffffffffffffffffffffffff1681526020019081526020016000206040518060a00160405280838152602001848152602001428152602001600160038111156124d5576124d46129c7565b5b81526020018573ffffffffffffffffffffffffffffffffffffffff1681525090806001815401808255809150506001900390600052602060002090600402016000909190919091506000820151816000019081612532919061372c565b50602082015181600101556040820151816002015560608201518160030160006101000a81548160ff02191690836003811115612572576125716129c7565b5b021790555060808201518160030160016101000a81548173ffffffffffffffffffffffffffffffffffffffff021916908373ffffffffffffffffffffffffffffffffffffffff16021790555050503373ffffffffffffffffffffffffffffffffffffffff167f971bd5a101131c5173b46091c05a7ba1680351a2d3ad3bbe79535718029bafd583838660405161260a939291906137fe565b60405180910390a2505050565b60606000612626600154612666565b6040516020016126369190613c9a565b60405160208183030381529060405290506001600081548092919061265a90613376565b91905055508091505090565b6060600082036126ad576040518060400160405280600181526020017f300000000000000000000000000000000000000000000000000000000000000081525090506127c7565b600082905060005b600082146126df5780806126c890613376565b915050600a826126d89190613ceb565b91506126b5565b60008167ffffffffffffffff8111156126fb576126fa612e79565b5b6040519080825280601f01601f19166020018201604052801561272d5781602001600182028036833780820191505090505b50905060008290505b600086146127bf5760018161274b91906138ea565b9050600a8661275a9190613d1c565b6030612766919061354c565b60f81b82828151811061277c5761277b613318565b5b60200101907effffffffffffffffffffffffffffffffffffffffffffffffffffffffffffff1916908160001a905350600a866127b89190613ceb565b9550612736565b819450505050505b919050565b60405180608001604052806000151581526020016060815260200160608152602001606081525090565b508054612802906132e7565b6000825580601f106128145750612833565b601f0160209004906000526020600020908101906128329190612836565b5b50565b5b8082111561284f576000816000905550600101612837565b5090565b6000604051905090565b600080fd5b600080fd5b600073ffffffffffffffffffffffffffffffffffffffff82169050919050565b600061289282612867565b9050919050565b6128a281612887565b81146128ad57600080fd5b50565b6000813590506128bf81612899565b92915050565b6000602082840312156128db576128da61285d565b5b60006128e9848285016128b0565b91505092915050565b600081519050919050565b600082825260208201905092915050565b6000819050602082019050919050565b600081519050919050565b600082825260208201905092915050565b60005b8381101561295857808201518184015260208101905061293d565b60008484015250505050565b6000601f19601f8301169050919050565b60006129808261291e565b61298a8185612929565b935061299a81856020860161293a565b6129a381612964565b840191505092915050565b6000819050919050565b6129c1816129ae565b82525050565b7f4e487b7100000000000000000000000000000000000000000000000000000000600052602160045260246000fd5b60048110612a0757612a066129c7565b5b50565b6000819050612a18826129f6565b919050565b6000612a2882612a0a565b9050919050565b612a3881612a1d565b82525050565b612a4781612887565b82525050565b600060a0830160008301518482036000860152612a6a8282612975565b9150506020830151612a7f60208601826129b8565b506040830151612a9260408601826129b8565b506060830151612aa56060860182612a2f565b506080830151612ab86080860182612a3e565b508091505092915050565b6000612acf8383612a4d565b905092915050565b6000602082019050919050565b6000612aef826128f2565b612af981856128fd565b935083602082028501612b0b8561290e565b8060005b85811015612b475784840389528151612b288582612ac3565b9450612b3383612ad7565b925060208a01995050600181019050612b0f565b50829750879550505050505092915050565b60006020820190508181036000830152612b738184612ae4565b905092915050565b600081519050919050565b600082825260208201905092915050565b6000819050602082019050919050565b6000612bb38383612a3e565b60208301905092915050565b6000602082019050919050565b6000612bd782612b7b565b612be18185612b86565b9350612bec83612b97565b8060005b83811015612c1d578151612c048882612ba7565b9750612c0f83612bbf565b925050600181019050612bf0565b5085935050505092915050565b600081519050919050565b600082825260208201905092915050565b6000819050602082019050919050565b60008115159050919050565b612c6b81612c56565b82525050565b6000608083016000830151612c896000860182612c62565b5060208301518482036020860152612ca18282612975565b91505060408301518482036040860152612cbb8282612975565b91505060608301518482036060860152612cd58282612975565b9150508091505092915050565b6000612cee8383612c71565b905092915050565b6000602082019050919050565b6000612d0e82612c2a565b612d188185612c35565b935083602082028501612d2a85612c46565b8060005b85811015612d665784840389528151612d478582612ce2565b9450612d5283612cf6565b925060208a01995050600181019050612d2e565b50829750879550505050505092915050565b60006040820190508181036000830152612d928185612bcc565b90508181036020830152612da68184612d03565b90509392505050565b612db8816129ae565b8114612dc357600080fd5b50565b600081359050612dd581612daf565b92915050565b60008060408385031215612df257612df161285d565b5b6000612e00858286016128b0565b9250506020612e1185828601612dc6565b9150509250929050565b612e24816129ae565b82525050565b6000602082019050612e3f6000830184612e1b565b92915050565b612e4e81612887565b82525050565b6000602082019050612e696000830184612e45565b92915050565b600080fd5b600080fd5b7f4e487b7100000000000000000000000000000000000000000000000000000000600052604160045260246000fd5b612eb182612964565b810181811067ffffffffffffffff82111715612ed057612ecf612e79565b5b80604052505050565b6000612ee3612853565b9050612eef8282612ea8565b919050565b600067ffffffffffffffff821115612f0f57612f0e612e79565b5b612f1882612964565b9050602081019050919050565b82818337600083830152505050565b6000612f47612f4284612ef4565b612ed9565b905082815260208101848484011115612f6357612f62612e74565b5b612f6e848285612f25565b509392505050565b600082601f830112612f8b57612f8a612e6f565b5b8135612f9b848260208601612f34565b91505092915050565b60008060008060808587031215612fbe57612fbd61285d565b5b6000612fcc878288016128b0565b945050602085013567ffffffffffffffff811115612fed57612fec612862565b5b612ff987828801612f76565b935050604085013567ffffffffffffffff81111561301a57613019612862565b5b61302687828801612f76565b925050606085013567ffffffffffffffff81111561304757613046612862565b5b61305387828801612f76565b91505092959194509250565b6000602082840312156130755761307461285d565b5b600061308384828501612dc6565b91505092915050565b6000806000606084860312156130a5576130a461285d565b5b60006130b3868287016128b0565b93505060206130c4868287016128b0565b92505060406130d586828701612dc6565b9150509250925092565b600081519050919050565b600082825260208201905092915050565b6000819050602082019050919050565b600061311783836129b8565b60208301905092915050565b6000602082019050919050565b600061313b826130df565b61314581856130ea565b9350613150836130fb565b8060005b83811015613181578151613168888261310b565b975061317383613123565b925050600181019050613154565b5085935050505092915050565b600060408201905081810360008301526131a88185612bcc565b905081810360208301526131bc8184613130565b90509392505050565b600080604083850312156131dc576131db61285d565b5b60006131ea858286016128b0565b92505060206131fb858286016128b0565b9150509250929050565b61320e81612c56565b82525050565b600082825260208201905092915050565b60006132308261291e565b61323a8185613214565b935061324a81856020860161293a565b61325381612964565b840191505092915050565b60006080820190506132736000830187613205565b81810360208301526132858186613225565b905081810360408301526132998185613225565b905081810360608301526132ad8184613225565b905095945050505050565b7f4e487b7100000000000000000000000000000000000000000000000000000000600052602260045260246000fd5b600060028204905060018216806132ff57607f821691505b602082108103613312576133116132b8565b5b50919050565b7f4e487b7100000000000000000000000000000000000000000000000000000000600052603260045260246000fd5b7f4e487b7100000000000000000000000000000000000000000000000000000000600052601160045260246000fd5b6000613381826129ae565b91507fffffffffffffffffffffffffffffffffffffffffffffffffffffffffffffffff82036133b3576133b2613347565b5b600182019050919050565b7f546f6b656e206e6f7420616c6c6f776564000000000000000000000000000000600082015250565b60006133f4601183613214565b91506133ff826133be565b602082019050919050565b60006020820190508181036000830152613423816133e7565b9050919050565b7f4465706f73697420616d6f756e74206d7573742062652067726561746572207460008201527f68616e207a65726f000000000000000000000000000000000000000000000000602082015250565b6000613486602883613214565b91506134918261342a565b604082019050919050565b600060208201905081810360008301526134b581613479565b9050919050565b60006060820190506134d16000830186612e45565b6134de6020830185612e45565b6134eb6040830184612e1b565b949350505050565b6134fc81612c56565b811461350757600080fd5b50565b600081519050613519816134f3565b92915050565b6000602082840312156135355761353461285d565b5b60006135438482850161350a565b91505092915050565b6000613557826129ae565b9150613562836129ae565b925082820190508082111561357a57613579613347565b5b92915050565b60008190508160005260206000209050919050565b60006020601f8301049050919050565b600082821b905092915050565b6000600883026135e27fffffffffffffffffffffffffffffffffffffffffffffffffffffffffffffffff826135a5565b6135ec86836135a5565b95508019841693508086168417925050509392505050565b6000819050919050565b600061362961362461361f846129ae565b613604565b6129ae565b9050919050565b6000819050919050565b6136438361360e565b61365761364f82613630565b8484546135b2565b825550505050565b600090565b61366c61365f565b61367781848461363a565b505050565b5b8181101561369b57613690600082613664565b60018101905061367d565b5050565b601f8211156136e0576136b181613580565b6136ba84613595565b810160208510156136c9578190505b6136dd6136d585613595565b83018261367c565b50505b505050565b600082821c905092915050565b6000613703600019846008026136e5565b1980831691505092915050565b600061371c83836136f2565b9150826002028217905092915050565b6137358261291e565b67ffffffffffffffff81111561374e5761374d612e79565b5b61375882546132e7565b61376382828561369f565b600060209050601f8311600181146137965760008415613784578287015190505b61378e8582613710565b8655506137f6565b601f1984166137a486613580565b60005b828110156137cc578489015182556001820191506020850194506020810190506137a7565b868310156137e957848901516137e5601f8916826136f2565b8355505b6001600288020188555050505b505050505050565b60006060820190506138136000830186612e1b565b81810360208301526138258185613225565b90506138346040830184612e45565b949350505050565b7f4e6f7420746865206f776e657200000000000000000000000000000000000000600082015250565b6000613872600d83613214565b915061387d8261383c565b602082019050919050565b600060208201905081810360008301526138a181613865565b9050919050565b6000815190506138b781612daf565b92915050565b6000602082840312156138d3576138d261285d565b5b60006138e1848285016138a8565b91505092915050565b60006138f5826129ae565b9150613900836129ae565b925082820390508181111561391857613917613347565b5b92915050565b7f4e487b7100000000000000000000000000000000000000000000000000000000600052603160045260246000fd5b60006080820190506139626000830187612e45565b81810360208301526139748186613225565b905081810360408301526139888185613225565b9050818103606083015261399c8184613225565b905095945050505050565b7f416d6f756e74206d7573742062652067726561746572207468616e207a65726f600082015250565b60006139dd602083613214565b91506139e8826139a7565b602082019050919050565b60006020820190508181036000830152613a0c816139d0565b9050919050565b7f496e76616c696420616d6f756e74000000000000000000000000000000000000600082015250565b6000613a49600e83613214565b9150613a5482613a13565b602082019050919050565b60006020820190508181036000830152613a7881613a3c565b9050919050565b6000604082019050613a946000830185612e45565b613aa16020830184612e1b565b9392505050565b7f5472616e73666572206661696c65640000000000000000000000000000000000600082015250565b6000613ade600f83613214565b9150613ae982613aa8565b602082019050919050565b60006020820190508181036000830152613b0d81613ad1565b9050919050565b7f496e73756666696369656e742062616c616e6365000000000000000000000000600082015250565b6000613b4a601483613214565b9150613b5582613b14565b602082019050919050565b60006020820190508181036000830152613b7981613b3d565b9050919050565b7f576974686472617720616d6f756e74206d75737420626520677265617465722060008201527f7468616e207a65726f0000000000000000000000000000000000000000000000602082015250565b6000613bdc602983613214565b9150613be782613b80565b604082019050919050565b60006020820190508181036000830152613c0b81613bcf565b9050919050565b600081905092915050565b7f436c75737465722d4750552d0000000000000000000000000000000000000000600082015250565b6000613c53600c83613c12565b9150613c5e82613c1d565b600c82019050919050565b6000613c748261291e565b613c7e8185613c12565b9350613c8e81856020860161293a565b80840191505092915050565b6000613ca582613c46565b9150613cb18284613c69565b915081905092915050565b7f4e487b7100000000000000000000000000000000000000000000000000000000600052601260045260246000fd5b6000613cf6826129ae565b9150613d01836129ae565b925082613d1157613d10613cbc565b5b828204905092915050565b6000613d27826129ae565b9150613d32836129ae565b925082613d4257613d41613cbc565b5b82820690509291505056fea264697066735822122055238a32d4a58fb96e80483e8b296a11516286fa2a7f714d5ed70085cdc3769964736f6c63430008140033",
  "linkReferences": {},
  "deployedLinkReferences": {}
}